{"contracts-simple/SimpleFHESalary.sol":{"SimpleFHESalary":{"abi":[{"anonymous":false,"inputs":[{"indexed":true,"internalType":"address","name":"companyAddress","type":"address"},{"indexed":false,"internalType":"string","name":"name","type":"string"}],"name":"CompanyRegistered","type":"event"},{"anonymous":false,"inputs":[{"indexed":true,"internalType":"address","name":"companyAddress","type":"address"},{"indexed":true,"internalType":"address","name":"employeeAddress","type":"address"}],"name":"EmployeeAdded","type":"event"},{"anonymous":false,"inputs":[{"indexed":true,"internalType":"address","name":"companyAddress","type":"address"},{"indexed":true,"internalType":"address","name":"employeeAddress","type":"address"},{"indexed":false,"internalType":"uint256","name":"amount","type":"uint256"},{"indexed":false,"internalType":"uint256","name":"timestamp","type":"uint256"}],"name":"SalaryPaid","type":"event"},{"anonymous":false,"inputs":[{"indexed":true,"internalType":"address","name":"employee","type":"address"},{"indexed":false,"internalType":"uint256","name":"salary","type":"uint256"}],"name":"SalarySet","type":"event"},{"inputs":[{"internalType":"address","name":"_employeeAddress","type":"address"},{"internalType":"uint256","name":"_baseSalary","type":"uint256"},{"internalType":"uint256","name":"_kpiBonus","type":"uint256"},{"internalType":"uint256","name":"_taskBonus","type":"uint256"}],"name":"addEmployee","outputs":[],"stateMutability":"nonpayable","type":"function"},{"inputs":[{"internalType":"address","name":"","type":"address"}],"name":"companies","outputs":[{"internalType":"address","name":"companyAddress","type":"address"},{"internalType":"string","name":"name","type":"string"},{"internalType":"uint256","name":"employeeCount","type":"uint256"},{"internalType":"uint256","name":"totalPayroll","type":"uint256"}],"stateMutability":"view","type":"function"},{"inputs":[{"internalType":"address","name":"","type":"address"},{"internalType":"uint256","name":"","type":"uint256"}],"name":"companyEmployees","outputs":[{"internalType":"address","name":"","type":"address"}],"stateMutability":"view","type":"function"},{"inputs":[{"internalType":"address","name":"","type":"address"},{"internalType":"address","name":"","type":"address"}],"name":"employees","outputs":[{"internalType":"address","name":"employeeAddress","type":"address"},{"internalType":"uint256","name":"baseSalary","type":"uint256"},{"internalType":"uint256","name":"kpiBonus","type":"uint256"},{"internalType":"uint256","name":"taskBonus","type":"uint256"},{"internalType":"bool","name":"isActive","type":"bool"},{"internalType":"uint256","name":"lastPaymentDate","type":"uint256"}],"stateMutability":"view","type":"function"},{"inputs":[{"internalType":"address","name":"_companyAddress","type":"address"}],"name":"getCompanyEmployees","outputs":[{"internalType":"address[]","name":"","type":"address[]"}],"stateMutability":"view","type":"function"},{"inputs":[{"internalType":"address","name":"_companyAddress","type":"address"}],"name":"getCompanyInfo","outputs":[{"internalType":"address","name":"companyAddress","type":"address"},{"internalType":"string","name":"name","type":"string"},{"internalType":"uint256","name":"employeeCount","type":"uint256"}],"stateMutability":"view","type":"function"},{"inputs":[{"internalType":"address","name":"_companyAddress","type":"address"},{"internalType":"address","name":"_employeeAddress","type":"address"}],"name":"getEmployeeInfo","outputs":[{"internalType":"address","name":"employeeAddress","type":"address"},{"internalType":"bool","name":"isActive","type":"bool"},{"internalType":"uint256","name":"lastPaymentDate","type":"uint256"}],"stateMutability":"view","type":"function"},{"inputs":[{"internalType":"address","name":"_companyAddress","type":"address"},{"internalType":"address","name":"_employeeAddress","type":"address"}],"name":"getEmployeeSalary","outputs":[{"internalType":"uint256","name":"totalSalary","type":"uint256"}],"stateMutability":"view","type":"function"},{"inputs":[{"internalType":"address","name":"_employeeAddress","type":"address"}],"name":"paySalary","outputs":[],"stateMutability":"payable","type":"function"},{"inputs":[{"internalType":"string","name":"_name","type":"string"}],"name":"registerCompany","outputs":[],"stateMutability":"nonpayable","type":"function"}],"evm":{"bytecode":{"linkReferences":{},"object":"608060405234801561001057600080fd5b50610fa2806100206000396000f3fe6080604052600436106100905760003560e01c806342e12c831161005957806342e12c83146101645780634a4247d91461019357806399147fbb146101b3578063bcdadb5214610254578063bd4aea2d1461028257600080fd5b806254419414610095578063021fa656146100b75780630ea37aef146100f45780633173e25214610107578063355e6ce814610134575b600080fd5b3480156100a157600080fd5b506100b56100b0366004610b36565b610300565b005b3480156100c357600080fd5b506100d76100d2366004610c03565b61041d565b6040516001600160a01b0390911681526020015b60405180910390f35b6100b5610102366004610c2d565b610455565b34801561011357600080fd5b50610127610122366004610c2d565b610685565b6040516100eb9190610c4f565b34801561014057600080fd5b5061015461014f366004610c2d565b6106fb565b6040516100eb9493929190610ce2565b34801561017057600080fd5b5061018461017f366004610c2d565b6107b6565b6040516100eb93929190610d19565b34801561019f57600080fd5b506100b56101ae366004610d4d565b610882565b3480156101bf57600080fd5b5061021b6101ce366004610d86565b600160208181526000938452604080852090915291835291208054918101546002820154600383015460048401546005909401546001600160a01b039095169492939192909160ff169086565b604080516001600160a01b03909716875260208701959095529385019290925260608401521515608083015260a082015260c0016100eb565b34801561026057600080fd5b5061027461026f366004610d86565b610ac8565b6040519081526020016100eb565b34801561028e57600080fd5b506102db61029d366004610d86565b6001600160a01b0391821660009081526001602090815260408083209385168352929052208054600482015460059092015492169260ff9091169190565b604080516001600160a01b0390941684529115156020840152908201526060016100eb565b336000908152602081905260409020546001600160a01b03161561036b5760405162461bcd60e51b815260206004820152601a60248201527f436f6d70616e7920616c7265616479207265676973746572656400000000000060448201526064015b60405180910390fd5b6040805160808101825233808252602080830185815260008486018190526060850181905292835290829052929020815181546001600160a01b0319166001600160a01b03909116178155915190919060018201906103ca9082610e44565b5060408281015160028301556060909201516003909101555133907f76686aa361308f4a08557cca1a847299ce61e5602a3495cd359a599a1dca438c90610412908490610f04565b60405180910390a250565b6002602052816000526040600020818154811061043957600080fd5b6000918252602090912001546001600160a01b03169150829050565b336000908152602081905260409020546001600160a01b03166104b35760405162461bcd60e51b815260206004820152601660248201527510dbdb5c185b9e481b9bdd081c9959da5cdd195c995960521b6044820152606401610362565b3360009081526001602090815260408083206001600160a01b038516845290915290206004015460ff1661051e5760405162461bcd60e51b8152602060048201526012602482015271115b5c1b1bde5959481b9bdd08199bdd5b9960721b6044820152606401610362565b3360009081526001602081815260408084206001600160a01b038616855290915282206003810154600282015492820154919392909161055e9190610f2d565b6105689190610f2d565b9050803410156105ba5760405162461bcd60e51b815260206004820152601b60248201527f496e73756666696369656e74207061796d656e7420616d6f756e7400000000006044820152606401610362565b6040516001600160a01b0384169082156108fc029083906000818181858888f193505050501580156105f0573d6000803e3d6000fd5b508034111561063157336108fc6106078334610f40565b6040518115909202916000818181858888f1935050505015801561062f573d6000803e3d6000fd5b505b42600583018190556040805183815260208101929092526001600160a01b0385169133917ff441de1719057f4b4e133556ec9d815e657d6010c8a7b6633182daa6a663db7e910160405180910390a3505050565b6001600160a01b0381166000908152600260209081526040918290208054835181840281018401909452808452606093928301828280156106ef57602002820191906000526020600020905b81546001600160a01b031681526001909101906020018083116106d1575b50505050509050919050565b600060208190529081526040902080546001820180546001600160a01b03909216929161072790610db9565b80601f016020809104026020016040519081016040528092919081815260200182805461075390610db9565b80156107a05780601f10610775576101008083540402835291602001916107a0565b820191906000526020600020905b81548152906001019060200180831161078357829003601f168201915b5050505050908060020154908060030154905084565b6001600160a01b038082166000908152602081905260408120805460028201546001830180549495606095879594909116929082906107f490610db9565b80601f016020809104026020016040519081016040528092919081815260200182805461082090610db9565b801561086d5780601f106108425761010080835404028352916020019161086d565b820191906000526020600020905b81548152906001019060200180831161085057829003601f168201915b50505050509150935093509350509193909250565b336000908152602081905260409020546001600160a01b03166108e05760405162461bcd60e51b815260206004820152601660248201527510dbdb5c185b9e481b9bdd081c9959da5cdd195c995960521b6044820152606401610362565b6001600160a01b0384166109365760405162461bcd60e51b815260206004820152601860248201527f496e76616c696420656d706c6f796565206164647265737300000000000000006044820152606401610362565b3360009081526001602090815260408083206001600160a01b038816845290915290206004015460ff16156109ad5760405162461bcd60e51b815260206004820152601760248201527f456d706c6f79656520616c7265616479206578697374730000000000000000006044820152606401610362565b6040805160c0810182526001600160a01b03808716808352602080840188815284860188815260608601888152600160808801818152600060a08a01818152338083528489528c83208a845289528c83209b518c549b166001600160a01b03199b8c16178c5596518b85015594516002808c0191909155935160038b0155905160048a01805491151560ff19909216919091179055925160059098019790975582825280845287822080549788018155825283822090960180549095169093179093559181529081905291822001805491610a8783610f53565b90915550506040516001600160a01b0385169033907fd41127bc1ef851a201f5a1dfbd1e1c6476563f6d0379f2ad3c63598549ed420890600090a350505050565b6001600160a01b03808316600090815260016020818152604080842094861684529390529181206003810154600282015493820154929391929091610b0c91610f2d565b610b169190610f2d565b9150505b92915050565b634e487b7160e01b600052604160045260246000fd5b600060208284031215610b4857600080fd5b813567ffffffffffffffff80821115610b6057600080fd5b818401915084601f830112610b7457600080fd5b813581811115610b8657610b86610b20565b604051601f8201601f19908116603f01168101908382118183101715610bae57610bae610b20565b81604052828152876020848701011115610bc757600080fd5b826020860160208301376000928101602001929092525095945050505050565b80356001600160a01b0381168114610bfe57600080fd5b919050565b60008060408385031215610c1657600080fd5b610c1f83610be7565b946020939093013593505050565b600060208284031215610c3f57600080fd5b610c4882610be7565b9392505050565b6020808252825182820181905260009190848201906040850190845b81811015610c905783516001600160a01b031683529284019291840191600101610c6b565b50909695505050505050565b6000815180845260005b81811015610cc257602081850181015186830182015201610ca6565b506000602082860101526020601f19601f83011685010191505092915050565b6001600160a01b0385168152608060208201819052600090610d0690830186610c9c565b6040830194909452506060015292915050565b6001600160a01b0384168152606060208201819052600090610d3d90830185610c9c565b9050826040830152949350505050565b60008060008060808587031215610d6357600080fd5b610d6c85610be7565b966020860135965060408601359560600135945092505050565b60008060408385031215610d9957600080fd5b610da283610be7565b9150610db060208401610be7565b90509250929050565b600181811c90821680610dcd57607f821691505b602082108103610ded57634e487b7160e01b600052602260045260246000fd5b50919050565b601f821115610e3f576000816000526020600020601f850160051c81016020861015610e1c5750805b601f850160051c820191505b81811015610e3b57828155600101610e28565b5050505b505050565b815167ffffffffffffffff811115610e5e57610e5e610b20565b610e7281610e6c8454610db9565b84610df3565b602080601f831160018114610ea75760008415610e8f5750858301515b600019600386901b1c1916600185901b178555610e3b565b600085815260208120601f198616915b82811015610ed657888601518255948401946001909101908401610eb7565b5085821015610ef45787850151600019600388901b60f8161c191681555b5050505050600190811b01905550565b602081526000610c486020830184610c9c565b634e487b7160e01b600052601160045260246000fd5b80820180821115610b1a57610b1a610f17565b81810381811115610b1a57610b1a610f17565b600060018201610f6557610f65610f17565b506001019056fea2646970667358221220d3f1d6da46b4aa7f77fe699f51e8da03ebfae89d274984c46bd6f6a72cbaa42464736f6c63430008180033","opcodes":"PUSH1 0x80 PUSH1 0x40 MSTORE CALLVALUE DUP1 ISZERO PUSH2 0x10 JUMPI PUSH1 0x0 DUP1 REVERT JUMPDEST POP PUSH2 0xFA2 DUP1 PUSH2 0x20 PUSH1 0x0 CODECOPY PUSH1 0x0 RETURN INVALID PUSH1 0x80 PUSH1 0x40 MSTORE PUSH1 0x4 CALLDATASIZE LT PUSH2 0x90 JUMPI PUSH1 0x0 CALLDATALOAD PUSH1 0xE0 SHR DUP1 PUSH4 0x42E12C83 GT PUSH2 0x59 JUMPI DUP1 PUSH4 0x42E12C83 EQ PUSH2 0x164 JUMPI DUP1 PUSH4 0x4A4247D9 EQ PUSH2 0x193 JUMPI DUP1 PUSH4 0x99147FBB EQ PUSH2 0x1B3 JUMPI DUP1 PUSH4 0xBCDADB52 EQ PUSH2 0x254 JUMPI DUP1 PUSH4 0xBD4AEA2D EQ PUSH2 0x282 JUMPI PUSH1 0x0 DUP1 REVERT JUMPDEST DUP1 PUSH3 0x544194 EQ PUSH2 0x95 JUMPI DUP1 PUSH4 0x21FA656 EQ PUSH2 0xB7 JUMPI DUP1 PUSH4 0xEA37AEF EQ PUSH2 0xF4 JUMPI DUP1 PUSH4 0x3173E252 EQ PUSH2 0x107 JUMPI DUP1 PUSH4 0x355E6CE8 EQ PUSH2 0x134 JUMPI JUMPDEST PUSH1 0x0 DUP1 REVERT JUMPDEST CALLVALUE DUP1 ISZERO PUSH2 0xA1 JUMPI PUSH1 0x0 DUP1 REVERT JUMPDEST POP PUSH2 0xB5 PUSH2 0xB0 CALLDATASIZE PUSH1 0x4 PUSH2 0xB36 JUMP JUMPDEST PUSH2 0x300 JUMP JUMPDEST STOP JUMPDEST CALLVALUE DUP1 ISZERO PUSH2 0xC3 JUMPI PUSH1 0x0 DUP1 REVERT JUMPDEST POP PUSH2 0xD7 PUSH2 0xD2 CALLDATASIZE PUSH1 0x4 PUSH2 0xC03 JUMP JUMPDEST PUSH2 0x41D JUMP JUMPDEST PUSH1 0x40 MLOAD PUSH1 0x1 PUSH1 0x1 PUSH1 0xA0 SHL SUB SWAP1 SWAP2 AND DUP2 MSTORE PUSH1 0x20 ADD JUMPDEST PUSH1 0x40 MLOAD DUP1 SWAP2 SUB SWAP1 RETURN JUMPDEST PUSH2 0xB5 PUSH2 0x102 CALLDATASIZE PUSH1 0x4 PUSH2 0xC2D JUMP JUMPDEST PUSH2 0x455 JUMP JUMPDEST CALLVALUE DUP1 ISZERO PUSH2 0x113 JUMPI PUSH1 0x0 DUP1 REVERT JUMPDEST POP PUSH2 0x127 PUSH2 0x122 CALLDATASIZE PUSH1 0x4 PUSH2 0xC2D JUMP JUMPDEST PUSH2 0x685 JUMP JUMPDEST PUSH1 0x40 MLOAD PUSH2 0xEB SWAP2 SWAP1 PUSH2 0xC4F JUMP JUMPDEST CALLVALUE DUP1 ISZERO PUSH2 0x140 JUMPI PUSH1 0x0 DUP1 REVERT JUMPDEST POP PUSH2 0x154 PUSH2 0x14F CALLDATASIZE PUSH1 0x4 PUSH2 0xC2D JUMP JUMPDEST PUSH2 0x6FB JUMP JUMPDEST PUSH1 0x40 MLOAD PUSH2 0xEB SWAP5 SWAP4 SWAP3 SWAP2 SWAP1 PUSH2 0xCE2 JUMP JUMPDEST CALLVALUE DUP1 ISZERO PUSH2 0x170 JUMPI PUSH1 0x0 DUP1 REVERT JUMPDEST POP PUSH2 0x184 PUSH2 0x17F CALLDATASIZE PUSH1 0x4 PUSH2 0xC2D JUMP JUMPDEST PUSH2 0x7B6 JUMP JUMPDEST PUSH1 0x40 MLOAD PUSH2 0xEB SWAP4 SWAP3 SWAP2 SWAP1 PUSH2 0xD19 JUMP JUMPDEST CALLVALUE DUP1 ISZERO PUSH2 0x19F JUMPI PUSH1 0x0 DUP1 REVERT JUMPDEST POP PUSH2 0xB5 PUSH2 0x1AE CALLDATASIZE PUSH1 0x4 PUSH2 0xD4D JUMP JUMPDEST PUSH2 0x882 JUMP JUMPDEST CALLVALUE DUP1 ISZERO PUSH2 0x1BF JUMPI PUSH1 0x0 DUP1 REVERT JUMPDEST POP PUSH2 0x21B PUSH2 0x1CE CALLDATASIZE PUSH1 0x4 PUSH2 0xD86 JUMP JUMPDEST PUSH1 0x1 PUSH1 0x20 DUP2 DUP2 MSTORE PUSH1 0x0 SWAP4 DUP5 MSTORE PUSH1 0x40 DUP1 DUP6 KECCAK256 SWAP1 SWAP2 MSTORE SWAP2 DUP4 MSTORE SWAP2 KECCAK256 DUP1 SLOAD SWAP2 DUP2 ADD SLOAD PUSH1 0x2 DUP3 ADD SLOAD PUSH1 0x3 DUP4 ADD SLOAD PUSH1 0x4 DUP5 ADD SLOAD PUSH1 0x5 SWAP1 SWAP5 ADD SLOAD PUSH1 0x1 PUSH1 0x1 PUSH1 0xA0 SHL SUB SWAP1 SWAP6 AND SWAP5 SWAP3 SWAP4 SWAP2 SWAP3 SWAP1 SWAP2 PUSH1 0xFF AND SWAP1 DUP7 JUMP JUMPDEST PUSH1 0x40 DUP1 MLOAD PUSH1 0x1 PUSH1 0x1 PUSH1 0xA0 SHL SUB SWAP1 SWAP8 AND DUP8 MSTORE PUSH1 0x20 DUP8 ADD SWAP6 SWAP1 SWAP6 MSTORE SWAP4 DUP6 ADD SWAP3 SWAP1 SWAP3 MSTORE PUSH1 0x60 DUP5 ADD MSTORE ISZERO ISZERO PUSH1 0x80 DUP4 ADD MSTORE PUSH1 0xA0 DUP3 ADD MSTORE PUSH1 0xC0 ADD PUSH2 0xEB JUMP JUMPDEST CALLVALUE DUP1 ISZERO PUSH2 0x260 JUMPI PUSH1 0x0 DUP1 REVERT JUMPDEST POP PUSH2 0x274 PUSH2 0x26F CALLDATASIZE PUSH1 0x4 PUSH2 0xD86 JUMP JUMPDEST PUSH2 0xAC8 JUMP JUMPDEST PUSH1 0x40 MLOAD SWAP1 DUP2 MSTORE PUSH1 0x20 ADD PUSH2 0xEB JUMP JUMPDEST CALLVALUE DUP1 ISZERO PUSH2 0x28E JUMPI PUSH1 0x0 DUP1 REVERT JUMPDEST POP PUSH2 0x2DB PUSH2 0x29D CALLDATASIZE PUSH1 0x4 PUSH2 0xD86 JUMP JUMPDEST PUSH1 0x1 PUSH1 0x1 PUSH1 0xA0 SHL SUB SWAP2 DUP3 AND PUSH1 0x0 SWAP1 DUP2 MSTORE PUSH1 0x1 PUSH1 0x20 SWAP1 DUP2 MSTORE PUSH1 0x40 DUP1 DUP4 KECCAK256 SWAP4 DUP6 AND DUP4 MSTORE SWAP3 SWAP1 MSTORE KECCAK256 DUP1 SLOAD PUSH1 0x4 DUP3 ADD SLOAD PUSH1 0x5 SWAP1 SWAP3 ADD SLOAD SWAP3 AND SWAP3 PUSH1 0xFF SWAP1 SWAP2 AND SWAP2 SWAP1 JUMP JUMPDEST PUSH1 0x40 DUP1 MLOAD PUSH1 0x1 PUSH1 0x1 PUSH1 0xA0 SHL SUB SWAP1 SWAP5 AND DUP5 MSTORE SWAP2 ISZERO ISZERO PUSH1 0x20 DUP5 ADD MSTORE SWAP1 DUP3 ADD MSTORE PUSH1 0x60 ADD PUSH2 0xEB JUMP JUMPDEST CALLER PUSH1 0x0 SWAP1 DUP2 MSTORE PUSH1 0x20 DUP2 SWAP1 MSTORE PUSH1 0x40 SWAP1 KECCAK256 SLOAD PUSH1 0x1 PUSH1 0x1 PUSH1 0xA0 SHL SUB AND ISZERO PUSH2 0x36B JUMPI PUSH1 0x40 MLOAD PUSH3 0x461BCD PUSH1 0xE5 SHL DUP2 MSTORE PUSH1 0x20 PUSH1 0x4 DUP3 ADD MSTORE PUSH1 0x1A PUSH1 0x24 DUP3 ADD MSTORE PUSH32 0x436F6D70616E7920616C72656164792072656769737465726564000000000000 PUSH1 0x44 DUP3 ADD MSTORE PUSH1 0x64 ADD JUMPDEST PUSH1 0x40 MLOAD DUP1 SWAP2 SUB SWAP1 REVERT JUMPDEST PUSH1 0x40 DUP1 MLOAD PUSH1 0x80 DUP2 ADD DUP3 MSTORE CALLER DUP1 DUP3 MSTORE PUSH1 0x20 DUP1 DUP4 ADD DUP6 DUP2 MSTORE PUSH1 0x0 DUP5 DUP7 ADD DUP2 SWAP1 MSTORE PUSH1 0x60 DUP6 ADD DUP2 SWAP1 MSTORE SWAP3 DUP4 MSTORE SWAP1 DUP3 SWAP1 MSTORE SWAP3 SWAP1 KECCAK256 DUP2 MLOAD DUP2 SLOAD PUSH1 0x1 PUSH1 0x1 PUSH1 0xA0 SHL SUB NOT AND PUSH1 0x1 PUSH1 0x1 PUSH1 0xA0 SHL SUB SWAP1 SWAP2 AND OR DUP2 SSTORE SWAP2 MLOAD SWAP1 SWAP2 SWAP1 PUSH1 0x1 DUP3 ADD SWAP1 PUSH2 0x3CA SWAP1 DUP3 PUSH2 0xE44 JUMP JUMPDEST POP PUSH1 0x40 DUP3 DUP2 ADD MLOAD PUSH1 0x2 DUP4 ADD SSTORE PUSH1 0x60 SWAP1 SWAP3 ADD MLOAD PUSH1 0x3 SWAP1 SWAP2 ADD SSTORE MLOAD CALLER SWAP1 PUSH32 0x76686AA361308F4A08557CCA1A847299CE61E5602A3495CD359A599A1DCA438C SWAP1 PUSH2 0x412 SWAP1 DUP5 SWAP1 PUSH2 0xF04 JUMP JUMPDEST PUSH1 0x40 MLOAD DUP1 SWAP2 SUB SWAP1 LOG2 POP JUMP JUMPDEST PUSH1 0x2 PUSH1 0x20 MSTORE DUP2 PUSH1 0x0 MSTORE PUSH1 0x40 PUSH1 0x0 KECCAK256 DUP2 DUP2 SLOAD DUP2 LT PUSH2 0x439 JUMPI PUSH1 0x0 DUP1 REVERT JUMPDEST PUSH1 0x0 SWAP2 DUP3 MSTORE PUSH1 0x20 SWAP1 SWAP2 KECCAK256 ADD SLOAD PUSH1 0x1 PUSH1 0x1 PUSH1 0xA0 SHL SUB AND SWAP2 POP DUP3 SWAP1 POP JUMP JUMPDEST CALLER PUSH1 0x0 SWAP1 DUP2 MSTORE PUSH1 0x20 DUP2 SWAP1 MSTORE PUSH1 0x40 SWAP1 KECCAK256 SLOAD PUSH1 0x1 PUSH1 0x1 PUSH1 0xA0 SHL SUB AND PUSH2 0x4B3 JUMPI PUSH1 0x40 MLOAD PUSH3 0x461BCD PUSH1 0xE5 SHL DUP2 MSTORE PUSH1 0x20 PUSH1 0x4 DUP3 ADD MSTORE PUSH1 0x16 PUSH1 0x24 DUP3 ADD MSTORE PUSH22 0x10DBDB5C185B9E481B9BDD081C9959DA5CDD195C9959 PUSH1 0x52 SHL PUSH1 0x44 DUP3 ADD MSTORE PUSH1 0x64 ADD PUSH2 0x362 JUMP JUMPDEST CALLER PUSH1 0x0 SWAP1 DUP2 MSTORE PUSH1 0x1 PUSH1 0x20 SWAP1 DUP2 MSTORE PUSH1 0x40 DUP1 DUP4 KECCAK256 PUSH1 0x1 PUSH1 0x1 PUSH1 0xA0 SHL SUB DUP6 AND DUP5 MSTORE SWAP1 SWAP2 MSTORE SWAP1 KECCAK256 PUSH1 0x4 ADD SLOAD PUSH1 0xFF AND PUSH2 0x51E JUMPI PUSH1 0x40 MLOAD PUSH3 0x461BCD PUSH1 0xE5 SHL DUP2 MSTORE PUSH1 0x20 PUSH1 0x4 DUP3 ADD MSTORE PUSH1 0x12 PUSH1 0x24 DUP3 ADD MSTORE PUSH18 0x115B5C1B1BDE5959481B9BDD08199BDD5B99 PUSH1 0x72 SHL PUSH1 0x44 DUP3 ADD MSTORE PUSH1 0x64 ADD PUSH2 0x362 JUMP JUMPDEST CALLER PUSH1 0x0 SWAP1 DUP2 MSTORE PUSH1 0x1 PUSH1 0x20 DUP2 DUP2 MSTORE PUSH1 0x40 DUP1 DUP5 KECCAK256 PUSH1 0x1 PUSH1 0x1 PUSH1 0xA0 SHL SUB DUP7 AND DUP6 MSTORE SWAP1 SWAP2 MSTORE DUP3 KECCAK256 PUSH1 0x3 DUP2 ADD SLOAD PUSH1 0x2 DUP3 ADD SLOAD SWAP3 DUP3 ADD SLOAD SWAP2 SWAP4 SWAP3 SWAP1 SWAP2 PUSH2 0x55E SWAP2 SWAP1 PUSH2 0xF2D JUMP JUMPDEST PUSH2 0x568 SWAP2 SWAP1 PUSH2 0xF2D JUMP JUMPDEST SWAP1 POP DUP1 CALLVALUE LT ISZERO PUSH2 0x5BA JUMPI PUSH1 0x40 MLOAD PUSH3 0x461BCD PUSH1 0xE5 SHL DUP2 MSTORE PUSH1 0x20 PUSH1 0x4 DUP3 ADD MSTORE PUSH1 0x1B PUSH1 0x24 DUP3 ADD MSTORE PUSH32 0x496E73756666696369656E74207061796D656E7420616D6F756E740000000000 PUSH1 0x44 DUP3 ADD MSTORE PUSH1 0x64 ADD PUSH2 0x362 JUMP JUMPDEST PUSH1 0x40 MLOAD PUSH1 0x1 PUSH1 0x1 PUSH1 0xA0 SHL SUB DUP5 AND SWAP1 DUP3 ISZERO PUSH2 0x8FC MUL SWAP1 DUP4 SWAP1 PUSH1 0x0 DUP2 DUP2 DUP2 DUP6 DUP9 DUP9 CALL SWAP4 POP POP POP POP ISZERO DUP1 ISZERO PUSH2 0x5F0 JUMPI RETURNDATASIZE PUSH1 0x0 DUP1 RETURNDATACOPY RETURNDATASIZE PUSH1 0x0 REVERT JUMPDEST POP DUP1 CALLVALUE GT ISZERO PUSH2 0x631 JUMPI CALLER PUSH2 0x8FC PUSH2 0x607 DUP4 CALLVALUE PUSH2 0xF40 JUMP JUMPDEST PUSH1 0x40 MLOAD DUP2 ISZERO SWAP1 SWAP3 MUL SWAP2 PUSH1 0x0 DUP2 DUP2 DUP2 DUP6 DUP9 DUP9 CALL SWAP4 POP POP POP POP ISZERO DUP1 ISZERO PUSH2 0x62F JUMPI RETURNDATASIZE PUSH1 0x0 DUP1 RETURNDATACOPY RETURNDATASIZE PUSH1 0x0 REVERT JUMPDEST POP JUMPDEST TIMESTAMP PUSH1 0x5 DUP4 ADD DUP2 SWAP1 SSTORE PUSH1 0x40 DUP1 MLOAD DUP4 DUP2 MSTORE PUSH1 0x20 DUP2 ADD SWAP3 SWAP1 SWAP3 MSTORE PUSH1 0x1 PUSH1 0x1 PUSH1 0xA0 SHL SUB DUP6 AND SWAP2 CALLER SWAP2 PUSH32 0xF441DE1719057F4B4E133556EC9D815E657D6010C8A7B6633182DAA6A663DB7E SWAP2 ADD PUSH1 0x40 MLOAD DUP1 SWAP2 SUB SWAP1 LOG3 POP POP POP JUMP JUMPDEST PUSH1 0x1 PUSH1 0x1 PUSH1 0xA0 SHL SUB DUP2 AND PUSH1 0x0 SWAP1 DUP2 MSTORE PUSH1 0x2 PUSH1 0x20 SWAP1 DUP2 MSTORE PUSH1 0x40 SWAP2 DUP3 SWAP1 KECCAK256 DUP1 SLOAD DUP4 MLOAD DUP2 DUP5 MUL DUP2 ADD DUP5 ADD SWAP1 SWAP5 MSTORE DUP1 DUP5 MSTORE PUSH1 0x60 SWAP4 SWAP3 DUP4 ADD DUP3 DUP3 DUP1 ISZERO PUSH2 0x6EF JUMPI PUSH1 0x20 MUL DUP3 ADD SWAP2 SWAP1 PUSH1 0x0 MSTORE PUSH1 0x20 PUSH1 0x0 KECCAK256 SWAP1 JUMPDEST DUP2 SLOAD PUSH1 0x1 PUSH1 0x1 PUSH1 0xA0 SHL SUB AND DUP2 MSTORE PUSH1 0x1 SWAP1 SWAP2 ADD SWAP1 PUSH1 0x20 ADD DUP1 DUP4 GT PUSH2 0x6D1 JUMPI JUMPDEST POP POP POP POP POP SWAP1 POP SWAP2 SWAP1 POP JUMP JUMPDEST PUSH1 0x0 PUSH1 0x20 DUP2 SWAP1 MSTORE SWAP1 DUP2 MSTORE PUSH1 0x40 SWAP1 KECCAK256 DUP1 SLOAD PUSH1 0x1 DUP3 ADD DUP1 SLOAD PUSH1 0x1 PUSH1 0x1 PUSH1 0xA0 SHL SUB SWAP1 SWAP3 AND SWAP3 SWAP2 PUSH2 0x727 SWAP1 PUSH2 0xDB9 JUMP JUMPDEST DUP1 PUSH1 0x1F ADD PUSH1 0x20 DUP1 SWAP2 DIV MUL PUSH1 0x20 ADD PUSH1 0x40 MLOAD SWAP1 DUP2 ADD PUSH1 0x40 MSTORE DUP1 SWAP3 SWAP2 SWAP1 DUP2 DUP2 MSTORE PUSH1 0x20 ADD DUP3 DUP1 SLOAD PUSH2 0x753 SWAP1 PUSH2 0xDB9 JUMP JUMPDEST DUP1 ISZERO PUSH2 0x7A0 JUMPI DUP1 PUSH1 0x1F LT PUSH2 0x775 JUMPI PUSH2 0x100 DUP1 DUP4 SLOAD DIV MUL DUP4 MSTORE SWAP2 PUSH1 0x20 ADD SWAP2 PUSH2 0x7A0 JUMP JUMPDEST DUP3 ADD SWAP2 SWAP1 PUSH1 0x0 MSTORE PUSH1 0x20 PUSH1 0x0 KECCAK256 SWAP1 JUMPDEST DUP2 SLOAD DUP2 MSTORE SWAP1 PUSH1 0x1 ADD SWAP1 PUSH1 0x20 ADD DUP1 DUP4 GT PUSH2 0x783 JUMPI DUP3 SWAP1 SUB PUSH1 0x1F AND DUP3 ADD SWAP2 JUMPDEST POP POP POP POP POP SWAP1 DUP1 PUSH1 0x2 ADD SLOAD SWAP1 DUP1 PUSH1 0x3 ADD SLOAD SWAP1 POP DUP5 JUMP JUMPDEST PUSH1 0x1 PUSH1 0x1 PUSH1 0xA0 SHL SUB DUP1 DUP3 AND PUSH1 0x0 SWAP1 DUP2 MSTORE PUSH1 0x20 DUP2 SWAP1 MSTORE PUSH1 0x40 DUP2 KECCAK256 DUP1 SLOAD PUSH1 0x2 DUP3 ADD SLOAD PUSH1 0x1 DUP4 ADD DUP1 SLOAD SWAP5 SWAP6 PUSH1 0x60 SWAP6 DUP8 SWAP6 SWAP5 SWAP1 SWAP2 AND SWAP3 SWAP1 DUP3 SWAP1 PUSH2 0x7F4 SWAP1 PUSH2 0xDB9 JUMP JUMPDEST DUP1 PUSH1 0x1F ADD PUSH1 0x20 DUP1 SWAP2 DIV MUL PUSH1 0x20 ADD PUSH1 0x40 MLOAD SWAP1 DUP2 ADD PUSH1 0x40 MSTORE DUP1 SWAP3 SWAP2 SWAP1 DUP2 DUP2 MSTORE PUSH1 0x20 ADD DUP3 DUP1 SLOAD PUSH2 0x820 SWAP1 PUSH2 0xDB9 JUMP JUMPDEST DUP1 ISZERO PUSH2 0x86D JUMPI DUP1 PUSH1 0x1F LT PUSH2 0x842 JUMPI PUSH2 0x100 DUP1 DUP4 SLOAD DIV MUL DUP4 MSTORE SWAP2 PUSH1 0x20 ADD SWAP2 PUSH2 0x86D JUMP JUMPDEST DUP3 ADD SWAP2 SWAP1 PUSH1 0x0 MSTORE PUSH1 0x20 PUSH1 0x0 KECCAK256 SWAP1 JUMPDEST DUP2 SLOAD DUP2 MSTORE SWAP1 PUSH1 0x1 ADD SWAP1 PUSH1 0x20 ADD DUP1 DUP4 GT PUSH2 0x850 JUMPI DUP3 SWAP1 SUB PUSH1 0x1F AND DUP3 ADD SWAP2 JUMPDEST POP POP POP POP POP SWAP2 POP SWAP4 POP SWAP4 POP SWAP4 POP POP SWAP2 SWAP4 SWAP1 SWAP3 POP JUMP JUMPDEST CALLER PUSH1 0x0 SWAP1 DUP2 MSTORE PUSH1 0x20 DUP2 SWAP1 MSTORE PUSH1 0x40 SWAP1 KECCAK256 SLOAD PUSH1 0x1 PUSH1 0x1 PUSH1 0xA0 SHL SUB AND PUSH2 0x8E0 JUMPI PUSH1 0x40 MLOAD PUSH3 0x461BCD PUSH1 0xE5 SHL DUP2 MSTORE PUSH1 0x20 PUSH1 0x4 DUP3 ADD MSTORE PUSH1 0x16 PUSH1 0x24 DUP3 ADD MSTORE PUSH22 0x10DBDB5C185B9E481B9BDD081C9959DA5CDD195C9959 PUSH1 0x52 SHL PUSH1 0x44 DUP3 ADD MSTORE PUSH1 0x64 ADD PUSH2 0x362 JUMP JUMPDEST PUSH1 0x1 PUSH1 0x1 PUSH1 0xA0 SHL SUB DUP5 AND PUSH2 0x936 JUMPI PUSH1 0x40 MLOAD PUSH3 0x461BCD PUSH1 0xE5 SHL DUP2 MSTORE PUSH1 0x20 PUSH1 0x4 DUP3 ADD MSTORE PUSH1 0x18 PUSH1 0x24 DUP3 ADD MSTORE PUSH32 0x496E76616C696420656D706C6F79656520616464726573730000000000000000 PUSH1 0x44 DUP3 ADD MSTORE PUSH1 0x64 ADD PUSH2 0x362 JUMP JUMPDEST CALLER PUSH1 0x0 SWAP1 DUP2 MSTORE PUSH1 0x1 PUSH1 0x20 SWAP1 DUP2 MSTORE PUSH1 0x40 DUP1 DUP4 KECCAK256 PUSH1 0x1 PUSH1 0x1 PUSH1 0xA0 SHL SUB DUP9 AND DUP5 MSTORE SWAP1 SWAP2 MSTORE SWAP1 KECCAK256 PUSH1 0x4 ADD SLOAD PUSH1 0xFF AND ISZERO PUSH2 0x9AD JUMPI PUSH1 0x40 MLOAD PUSH3 0x461BCD PUSH1 0xE5 SHL DUP2 MSTORE PUSH1 0x20 PUSH1 0x4 DUP3 ADD MSTORE PUSH1 0x17 PUSH1 0x24 DUP3 ADD MSTORE PUSH32 0x456D706C6F79656520616C726561647920657869737473000000000000000000 PUSH1 0x44 DUP3 ADD MSTORE PUSH1 0x64 ADD PUSH2 0x362 JUMP JUMPDEST PUSH1 0x40 DUP1 MLOAD PUSH1 0xC0 DUP2 ADD DUP3 MSTORE PUSH1 0x1 PUSH1 0x1 PUSH1 0xA0 SHL SUB DUP1 DUP8 AND DUP1 DUP4 MSTORE PUSH1 0x20 DUP1 DUP5 ADD DUP9 DUP2 MSTORE DUP5 DUP7 ADD DUP9 DUP2 MSTORE PUSH1 0x60 DUP7 ADD DUP9 DUP2 MSTORE PUSH1 0x1 PUSH1 0x80 DUP9 ADD DUP2 DUP2 MSTORE PUSH1 0x0 PUSH1 0xA0 DUP11 ADD DUP2 DUP2 MSTORE CALLER DUP1 DUP4 MSTORE DUP5 DUP10 MSTORE DUP13 DUP4 KECCAK256 DUP11 DUP5 MSTORE DUP10 MSTORE DUP13 DUP4 KECCAK256 SWAP12 MLOAD DUP13 SLOAD SWAP12 AND PUSH1 0x1 PUSH1 0x1 PUSH1 0xA0 SHL SUB NOT SWAP12 DUP13 AND OR DUP13 SSTORE SWAP7 MLOAD DUP12 DUP6 ADD SSTORE SWAP5 MLOAD PUSH1 0x2 DUP1 DUP13 ADD SWAP2 SWAP1 SWAP2 SSTORE SWAP4 MLOAD PUSH1 0x3 DUP12 ADD SSTORE SWAP1 MLOAD PUSH1 0x4 DUP11 ADD DUP1 SLOAD SWAP2 ISZERO ISZERO PUSH1 0xFF NOT SWAP1 SWAP3 AND SWAP2 SWAP1 SWAP2 OR SWAP1 SSTORE SWAP3 MLOAD PUSH1 0x5 SWAP1 SWAP9 ADD SWAP8 SWAP1 SWAP8 SSTORE DUP3 DUP3 MSTORE DUP1 DUP5 MSTORE DUP8 DUP3 KECCAK256 DUP1 SLOAD SWAP8 DUP9 ADD DUP2 SSTORE DUP3 MSTORE DUP4 DUP3 KECCAK256 SWAP1 SWAP7 ADD DUP1 SLOAD SWAP1 SWAP6 AND SWAP1 SWAP4 OR SWAP1 SWAP4 SSTORE SWAP2 DUP2 MSTORE SWAP1 DUP2 SWAP1 MSTORE SWAP2 DUP3 KECCAK256 ADD DUP1 SLOAD SWAP2 PUSH2 0xA87 DUP4 PUSH2 0xF53 JUMP JUMPDEST SWAP1 SWAP2 SSTORE POP POP PUSH1 0x40 MLOAD PUSH1 0x1 PUSH1 0x1 PUSH1 0xA0 SHL SUB DUP6 AND SWAP1 CALLER SWAP1 PUSH32 0xD41127BC1EF851A201F5A1DFBD1E1C6476563F6D0379F2AD3C63598549ED4208 SWAP1 PUSH1 0x0 SWAP1 LOG3 POP POP POP POP JUMP JUMPDEST PUSH1 0x1 PUSH1 0x1 PUSH1 0xA0 SHL SUB DUP1 DUP4 AND PUSH1 0x0 SWAP1 DUP2 MSTORE PUSH1 0x1 PUSH1 0x20 DUP2 DUP2 MSTORE PUSH1 0x40 DUP1 DUP5 KECCAK256 SWAP5 DUP7 AND DUP5 MSTORE SWAP4 SWAP1 MSTORE SWAP2 DUP2 KECCAK256 PUSH1 0x3 DUP2 ADD SLOAD PUSH1 0x2 DUP3 ADD SLOAD SWAP4 DUP3 ADD SLOAD SWAP3 SWAP4 SWAP2 SWAP3 SWAP1 SWAP2 PUSH2 0xB0C SWAP2 PUSH2 0xF2D JUMP JUMPDEST PUSH2 0xB16 SWAP2 SWAP1 PUSH2 0xF2D JUMP JUMPDEST SWAP2 POP POP JUMPDEST SWAP3 SWAP2 POP POP JUMP JUMPDEST PUSH4 0x4E487B71 PUSH1 0xE0 SHL PUSH1 0x0 MSTORE PUSH1 0x41 PUSH1 0x4 MSTORE PUSH1 0x24 PUSH1 0x0 REVERT JUMPDEST PUSH1 0x0 PUSH1 0x20 DUP3 DUP5 SUB SLT ISZERO PUSH2 0xB48 JUMPI PUSH1 0x0 DUP1 REVERT JUMPDEST DUP2 CALLDATALOAD PUSH8 0xFFFFFFFFFFFFFFFF DUP1 DUP3 GT ISZERO PUSH2 0xB60 JUMPI PUSH1 0x0 DUP1 REVERT JUMPDEST DUP2 DUP5 ADD SWAP2 POP DUP5 PUSH1 0x1F DUP4 ADD SLT PUSH2 0xB74 JUMPI PUSH1 0x0 DUP1 REVERT JUMPDEST DUP2 CALLDATALOAD DUP2 DUP2 GT ISZERO PUSH2 0xB86 JUMPI PUSH2 0xB86 PUSH2 0xB20 JUMP JUMPDEST PUSH1 0x40 MLOAD PUSH1 0x1F DUP3 ADD PUSH1 0x1F NOT SWAP1 DUP2 AND PUSH1 0x3F ADD AND DUP2 ADD SWAP1 DUP4 DUP3 GT DUP2 DUP4 LT OR ISZERO PUSH2 0xBAE JUMPI PUSH2 0xBAE PUSH2 0xB20 JUMP JUMPDEST DUP2 PUSH1 0x40 MSTORE DUP3 DUP2 MSTORE DUP8 PUSH1 0x20 DUP5 DUP8 ADD ADD GT ISZERO PUSH2 0xBC7 JUMPI PUSH1 0x0 DUP1 REVERT JUMPDEST DUP3 PUSH1 0x20 DUP7 ADD PUSH1 0x20 DUP4 ADD CALLDATACOPY PUSH1 0x0 SWAP3 DUP2 ADD PUSH1 0x20 ADD SWAP3 SWAP1 SWAP3 MSTORE POP SWAP6 SWAP5 POP POP POP POP POP JUMP JUMPDEST DUP1 CALLDATALOAD PUSH1 0x1 PUSH1 0x1 PUSH1 0xA0 SHL SUB DUP2 AND DUP2 EQ PUSH2 0xBFE JUMPI PUSH1 0x0 DUP1 REVERT JUMPDEST SWAP2 SWAP1 POP JUMP JUMPDEST PUSH1 0x0 DUP1 PUSH1 0x40 DUP4 DUP6 SUB SLT ISZERO PUSH2 0xC16 JUMPI PUSH1 0x0 DUP1 REVERT JUMPDEST PUSH2 0xC1F DUP4 PUSH2 0xBE7 JUMP JUMPDEST SWAP5 PUSH1 0x20 SWAP4 SWAP1 SWAP4 ADD CALLDATALOAD SWAP4 POP POP POP JUMP JUMPDEST PUSH1 0x0 PUSH1 0x20 DUP3 DUP5 SUB SLT ISZERO PUSH2 0xC3F JUMPI PUSH1 0x0 DUP1 REVERT JUMPDEST PUSH2 0xC48 DUP3 PUSH2 0xBE7 JUMP JUMPDEST SWAP4 SWAP3 POP POP POP JUMP JUMPDEST PUSH1 0x20 DUP1 DUP3 MSTORE DUP3 MLOAD DUP3 DUP3 ADD DUP2 SWAP1 MSTORE PUSH1 0x0 SWAP2 SWAP1 DUP5 DUP3 ADD SWAP1 PUSH1 0x40 DUP6 ADD SWAP1 DUP5 JUMPDEST DUP2 DUP2 LT ISZERO PUSH2 0xC90 JUMPI DUP4 MLOAD PUSH1 0x1 PUSH1 0x1 PUSH1 0xA0 SHL SUB AND DUP4 MSTORE SWAP3 DUP5 ADD SWAP3 SWAP2 DUP5 ADD SWAP2 PUSH1 0x1 ADD PUSH2 0xC6B JUMP JUMPDEST POP SWAP1 SWAP7 SWAP6 POP POP POP POP POP POP JUMP JUMPDEST PUSH1 0x0 DUP2 MLOAD DUP1 DUP5 MSTORE PUSH1 0x0 JUMPDEST DUP2 DUP2 LT ISZERO PUSH2 0xCC2 JUMPI PUSH1 0x20 DUP2 DUP6 ADD DUP2 ADD MLOAD DUP7 DUP4 ADD DUP3 ADD MSTORE ADD PUSH2 0xCA6 JUMP JUMPDEST POP PUSH1 0x0 PUSH1 0x20 DUP3 DUP7 ADD ADD MSTORE PUSH1 0x20 PUSH1 0x1F NOT PUSH1 0x1F DUP4 ADD AND DUP6 ADD ADD SWAP2 POP POP SWAP3 SWAP2 POP POP JUMP JUMPDEST PUSH1 0x1 PUSH1 0x1 PUSH1 0xA0 SHL SUB DUP6 AND DUP2 MSTORE PUSH1 0x80 PUSH1 0x20 DUP3 ADD DUP2 SWAP1 MSTORE PUSH1 0x0 SWAP1 PUSH2 0xD06 SWAP1 DUP4 ADD DUP7 PUSH2 0xC9C JUMP JUMPDEST PUSH1 0x40 DUP4 ADD SWAP5 SWAP1 SWAP5 MSTORE POP PUSH1 0x60 ADD MSTORE SWAP3 SWAP2 POP POP JUMP JUMPDEST PUSH1 0x1 PUSH1 0x1 PUSH1 0xA0 SHL SUB DUP5 AND DUP2 MSTORE PUSH1 0x60 PUSH1 0x20 DUP3 ADD DUP2 SWAP1 MSTORE PUSH1 0x0 SWAP1 PUSH2 0xD3D SWAP1 DUP4 ADD DUP6 PUSH2 0xC9C JUMP JUMPDEST SWAP1 POP DUP3 PUSH1 0x40 DUP4 ADD MSTORE SWAP5 SWAP4 POP POP POP POP JUMP JUMPDEST PUSH1 0x0 DUP1 PUSH1 0x0 DUP1 PUSH1 0x80 DUP6 DUP8 SUB SLT ISZERO PUSH2 0xD63 JUMPI PUSH1 0x0 DUP1 REVERT JUMPDEST PUSH2 0xD6C DUP6 PUSH2 0xBE7 JUMP JUMPDEST SWAP7 PUSH1 0x20 DUP7 ADD CALLDATALOAD SWAP7 POP PUSH1 0x40 DUP7 ADD CALLDATALOAD SWAP6 PUSH1 0x60 ADD CALLDATALOAD SWAP5 POP SWAP3 POP POP POP JUMP JUMPDEST PUSH1 0x0 DUP1 PUSH1 0x40 DUP4 DUP6 SUB SLT ISZERO PUSH2 0xD99 JUMPI PUSH1 0x0 DUP1 REVERT JUMPDEST PUSH2 0xDA2 DUP4 PUSH2 0xBE7 JUMP JUMPDEST SWAP2 POP PUSH2 0xDB0 PUSH1 0x20 DUP5 ADD PUSH2 0xBE7 JUMP JUMPDEST SWAP1 POP SWAP3 POP SWAP3 SWAP1 POP JUMP JUMPDEST PUSH1 0x1 DUP2 DUP2 SHR SWAP1 DUP3 AND DUP1 PUSH2 0xDCD JUMPI PUSH1 0x7F DUP3 AND SWAP2 POP JUMPDEST PUSH1 0x20 DUP3 LT DUP2 SUB PUSH2 0xDED JUMPI PUSH4 0x4E487B71 PUSH1 0xE0 SHL PUSH1 0x0 MSTORE PUSH1 0x22 PUSH1 0x4 MSTORE PUSH1 0x24 PUSH1 0x0 REVERT JUMPDEST POP SWAP2 SWAP1 POP JUMP JUMPDEST PUSH1 0x1F DUP3 GT ISZERO PUSH2 0xE3F JUMPI PUSH1 0x0 DUP2 PUSH1 0x0 MSTORE PUSH1 0x20 PUSH1 0x0 KECCAK256 PUSH1 0x1F DUP6 ADD PUSH1 0x5 SHR DUP2 ADD PUSH1 0x20 DUP7 LT ISZERO PUSH2 0xE1C JUMPI POP DUP1 JUMPDEST PUSH1 0x1F DUP6 ADD PUSH1 0x5 SHR DUP3 ADD SWAP2 POP JUMPDEST DUP2 DUP2 LT ISZERO PUSH2 0xE3B JUMPI DUP3 DUP2 SSTORE PUSH1 0x1 ADD PUSH2 0xE28 JUMP JUMPDEST POP POP POP JUMPDEST POP POP POP JUMP JUMPDEST DUP2 MLOAD PUSH8 0xFFFFFFFFFFFFFFFF DUP2 GT ISZERO PUSH2 0xE5E JUMPI PUSH2 0xE5E PUSH2 0xB20 JUMP JUMPDEST PUSH2 0xE72 DUP2 PUSH2 0xE6C DUP5 SLOAD PUSH2 0xDB9 JUMP JUMPDEST DUP5 PUSH2 0xDF3 JUMP JUMPDEST PUSH1 0x20 DUP1 PUSH1 0x1F DUP4 GT PUSH1 0x1 DUP2 EQ PUSH2 0xEA7 JUMPI PUSH1 0x0 DUP5 ISZERO PUSH2 0xE8F JUMPI POP DUP6 DUP4 ADD MLOAD JUMPDEST PUSH1 0x0 NOT PUSH1 0x3 DUP7 SWAP1 SHL SHR NOT AND PUSH1 0x1 DUP6 SWAP1 SHL OR DUP6 SSTORE PUSH2 0xE3B JUMP JUMPDEST PUSH1 0x0 DUP6 DUP2 MSTORE PUSH1 0x20 DUP2 KECCAK256 PUSH1 0x1F NOT DUP7 AND SWAP2 JUMPDEST DUP3 DUP2 LT ISZERO PUSH2 0xED6 JUMPI DUP9 DUP7 ADD MLOAD DUP3 SSTORE SWAP5 DUP5 ADD SWAP5 PUSH1 0x1 SWAP1 SWAP2 ADD SWAP1 DUP5 ADD PUSH2 0xEB7 JUMP JUMPDEST POP DUP6 DUP3 LT ISZERO PUSH2 0xEF4 JUMPI DUP8 DUP6 ADD MLOAD PUSH1 0x0 NOT PUSH1 0x3 DUP9 SWAP1 SHL PUSH1 0xF8 AND SHR NOT AND DUP2 SSTORE JUMPDEST POP POP POP POP POP PUSH1 0x1 SWAP1 DUP2 SHL ADD SWAP1 SSTORE POP JUMP JUMPDEST PUSH1 0x20 DUP2 MSTORE PUSH1 0x0 PUSH2 0xC48 PUSH1 0x20 DUP4 ADD DUP5 PUSH2 0xC9C JUMP JUMPDEST PUSH4 0x4E487B71 PUSH1 0xE0 SHL PUSH1 0x0 MSTORE PUSH1 0x11 PUSH1 0x4 MSTORE PUSH1 0x24 PUSH1 0x0 REVERT JUMPDEST DUP1 DUP3 ADD DUP1 DUP3 GT ISZERO PUSH2 0xB1A JUMPI PUSH2 0xB1A PUSH2 0xF17 JUMP JUMPDEST DUP2 DUP2 SUB DUP2 DUP2 GT ISZERO PUSH2 0xB1A JUMPI PUSH2 0xB1A PUSH2 0xF17 JUMP JUMPDEST PUSH1 0x0 PUSH1 0x1 DUP3 ADD PUSH2 0xF65 JUMPI PUSH2 0xF65 PUSH2 0xF17 JUMP JUMPDEST POP PUSH1 0x1 ADD SWAP1 JUMP INVALID LOG2 PUSH5 0x6970667358 0x22 SLT KECCAK256 0xD3 CALL 0xD6 0xDA CHAINID 0xB4 0xAA PUSH32 0x77FE699F51E8DA03EBFAE89D274984C46BD6F6A72CBAA42464736F6C63430008 XOR STOP CALLER "},"methodIdentifiers":{"addEmployee(address,uint256,uint256,uint256)":"4a4247d9","companies(address)":"355e6ce8","companyEmployees(address,uint256)":"021fa656","employees(address,address)":"99147fbb","getCompanyEmployees(address)":"3173e252","getCompanyInfo(address)":"42e12c83","getEmployeeInfo(address,address)":"bd4aea2d","getEmployeeSalary(address,address)":"bcdadb52","paySalary(address)":"0ea37aef","registerCompany(string)":"00544194"}}}}}