{
  "_format": "hh-sol-artifact-1",
  "contractName": "SimpleFHESalary",
  "sourceName": "contracts-simple/SimpleFHESalary.sol",
  "abi": [
    {
      "anonymous": false,
      "inputs": [
        {
          "indexed": true,
          "internalType": "address",
          "name": "companyAddress",
          "type": "address"
        },
        {
          "indexed": false,
          "internalType": "string",
          "name": "name",
          "type": "string"
        }
      ],
      "name": "CompanyRegistered",
      "type": "event"
    },
    {
      "anonymous": false,
      "inputs": [
        {
          "indexed": true,
          "internalType": "address",
          "name": "companyAddress",
          "type": "address"
        },
        {
          "indexed": true,
          "internalType": "address",
          "name": "employeeAddress",
          "type": "address"
        }
      ],
      "name": "EmployeeAdded",
      "type": "event"
    },
    {
      "anonymous": false,
      "inputs": [
        {
          "indexed": true,
          "internalType": "address",
          "name": "companyAddress",
          "type": "address"
        },
        {
          "indexed": true,
          "internalType": "address",
          "name": "employeeAddress",
          "type": "address"
        },
        {
          "indexed": false,
          "internalType": "uint256",
          "name": "amount",
          "type": "uint256"
        },
        {
          "indexed": false,
          "internalType": "uint256",
          "name": "timestamp",
          "type": "uint256"
        }
      ],
      "name": "SalaryPaid",
      "type": "event"
    },
    {
      "anonymous": false,
      "inputs": [
        {
          "indexed": true,
          "internalType": "address",
          "name": "employee",
          "type": "address"
        },
        {
          "indexed": false,
          "internalType": "uint256",
          "name": "salary",
          "type": "uint256"
        }
      ],
      "name": "SalarySet",
      "type": "event"
    },
    {
      "inputs": [
        {
          "internalType": "address",
          "name": "_employeeAddress",
          "type": "address"
        },
        {
          "internalType": "uint256",
          "name": "_baseSalary",
          "type": "uint256"
        },
        {
          "internalType": "uint256",
          "name": "_kpiBonus",
          "type": "uint256"
        },
        {
          "internalType": "uint256",
          "name": "_taskBonus",
          "type": "uint256"
        }
      ],
      "name": "addEmployee",
      "outputs": [],
      "stateMutability": "nonpayable",
      "type": "function"
    },
    {
      "inputs": [
        {
          "internalType": "address",
          "name": "",
          "type": "address"
        }
      ],
      "name": "companies",
      "outputs": [
        {
          "internalType": "address",
          "name": "companyAddress",
          "type": "address"
        },
        {
          "internalType": "string",
          "name": "name",
          "type": "string"
        },
        {
          "internalType": "uint256",
          "name": "employeeCount",
          "type": "uint256"
        },
        {
          "internalType": "uint256",
          "name": "totalPayroll",
          "type": "uint256"
        }
      ],
      "stateMutability": "view",
      "type": "function"
    },
    {
      "inputs": [
        {
          "internalType": "address",
          "name": "",
          "type": "address"
        },
        {
          "internalType": "uint256",
          "name": "",
          "type": "uint256"
        }
      ],
      "name": "companyEmployees",
      "outputs": [
        {
          "internalType": "address",
          "name": "",
          "type": "address"
        }
      ],
      "stateMutability": "view",
      "type": "function"
    },
    {
      "inputs": [
        {
          "internalType": "address",
          "name": "",
          "type": "address"
        },
        {
          "internalType": "address",
          "name": "",
          "type": "address"
        }
      ],
      "name": "employees",
      "outputs": [
        {
          "internalType": "address",
          "name": "employeeAddress",
          "type": "address"
        },
        {
          "internalType": "uint256",
          "name": "baseSalary",
          "type": "uint256"
        },
        {
          "internalType": "uint256",
          "name": "kpiBonus",
          "type": "uint256"
        },
        {
          "internalType": "uint256",
          "name": "taskBonus",
          "type": "uint256"
        },
        {
          "internalType": "bool",
          "name": "isActive",
          "type": "bool"
        },
        {
          "internalType": "uint256",
          "name": "lastPaymentDate",
          "type": "uint256"
        }
      ],
      "stateMutability": "view",
      "type": "function"
    },
    {
      "inputs": [
        {
          "internalType": "address",
          "name": "_companyAddress",
          "type": "address"
        }
      ],
      "name": "getCompanyEmployees",
      "outputs": [
        {
          "internalType": "address[]",
          "name": "",
          "type": "address[]"
        }
      ],
      "stateMutability": "view",
      "type": "function"
    },
    {
      "inputs": [
        {
          "internalType": "address",
          "name": "_companyAddress",
          "type": "address"
        }
      ],
      "name": "getCompanyInfo",
      "outputs": [
        {
          "internalType": "address",
          "name": "companyAddress",
          "type": "address"
        },
        {
          "internalType": "string",
          "name": "name",
          "type": "string"
        },
        {
          "internalType": "uint256",
          "name": "employeeCount",
          "type": "uint256"
        }
      ],
      "stateMutability": "view",
      "type": "function"
    },
    {
      "inputs": [
        {
          "internalType": "address",
          "name": "_companyAddress",
          "type": "address"
        },
        {
          "internalType": "address",
          "name": "_employeeAddress",
          "type": "address"
        }
      ],
      "name": "getEmployeeInfo",
      "outputs": [
        {
          "internalType": "address",
          "name": "employeeAddress",
          "type": "address"
        },
        {
          "internalType": "bool",
          "name": "isActive",
          "type": "bool"
        },
        {
          "internalType": "uint256",
          "name": "lastPaymentDate",
          "type": "uint256"
        }
      ],
      "stateMutability": "view",
      "type": "function"
    },
    {
      "inputs": [
        {
          "internalType": "address",
          "name": "_companyAddress",
          "type": "address"
        },
        {
          "internalType": "address",
          "name": "_employeeAddress",
          "type": "address"
        }
      ],
      "name": "getEmployeeSalary",
      "outputs": [
        {
          "internalType": "uint256",
          "name": "totalSalary",
          "type": "uint256"
        }
      ],
      "stateMutability": "view",
      "type": "function"
    },
    {
      "inputs": [
        {
          "internalType": "address",
          "name": "_employeeAddress",
          "type": "address"
        }
      ],
      "name": "paySalary",
      "outputs": [],
      "stateMutability": "payable",
      "type": "function"
    },
    {
      "inputs": [
        {
          "internalType": "string",
          "name": "_name",
          "type": "string"
        }
      ],
      "name": "registerCompany",
      "outputs": [],
      "stateMutability": "nonpayable",
      "type": "function"
    }
  ],
  "bytecode": "0x608060405234801561001057600080fd5b50610fa2806100206000396000f3fe6080604052600436106100905760003560e01c806342e12c831161005957806342e12c83146101645780634a4247d91461019357806399147fbb146101b3578063bcdadb5214610254578063bd4aea2d1461028257600080fd5b806254419414610095578063021fa656146100b75780630ea37aef146100f45780633173e25214610107578063355e6ce814610134575b600080fd5b3480156100a157600080fd5b506100b56100b0366004610b36565b610300565b005b3480156100c357600080fd5b506100d76100d2366004610c03565b61041d565b6040516001600160a01b0390911681526020015b60405180910390f35b6100b5610102366004610c2d565b610455565b34801561011357600080fd5b50610127610122366004610c2d565b610685565b6040516100eb9190610c4f565b34801561014057600080fd5b5061015461014f366004610c2d565b6106fb565b6040516100eb9493929190610ce2565b34801561017057600080fd5b5061018461017f366004610c2d565b6107b6565b6040516100eb93929190610d19565b34801561019f57600080fd5b506100b56101ae366004610d4d565b610882565b3480156101bf57600080fd5b5061021b6101ce366004610d86565b600160208181526000938452604080852090915291835291208054918101546002820154600383015460048401546005909401546001600160a01b039095169492939192909160ff169086565b604080516001600160a01b03909716875260208701959095529385019290925260608401521515608083015260a082015260c0016100eb565b34801561026057600080fd5b5061027461026f366004610d86565b610ac8565b6040519081526020016100eb565b34801561028e57600080fd5b506102db61029d366004610d86565b6001600160a01b0391821660009081526001602090815260408083209385168352929052208054600482015460059092015492169260ff9091169190565b604080516001600160a01b0390941684529115156020840152908201526060016100eb565b336000908152602081905260409020546001600160a01b03161561036b5760405162461bcd60e51b815260206004820152601a60248201527f436f6d70616e7920616c7265616479207265676973746572656400000000000060448201526064015b60405180910390fd5b6040805160808101825233808252602080830185815260008486018190526060850181905292835290829052929020815181546001600160a01b0319166001600160a01b03909116178155915190919060018201906103ca9082610e44565b5060408281015160028301556060909201516003909101555133907f76686aa361308f4a08557cca1a847299ce61e5602a3495cd359a599a1dca438c90610412908490610f04565b60405180910390a250565b6002602052816000526040600020818154811061043957600080fd5b6000918252602090912001546001600160a01b03169150829050565b336000908152602081905260409020546001600160a01b03166104b35760405162461bcd60e51b815260206004820152601660248201527510dbdb5c185b9e481b9bdd081c9959da5cdd195c995960521b6044820152606401610362565b3360009081526001602090815260408083206001600160a01b038516845290915290206004015460ff1661051e5760405162461bcd60e51b8152602060048201526012602482015271115b5c1b1bde5959481b9bdd08199bdd5b9960721b6044820152606401610362565b3360009081526001602081815260408084206001600160a01b038616855290915282206003810154600282015492820154919392909161055e9190610f2d565b6105689190610f2d565b9050803410156105ba5760405162461bcd60e51b815260206004820152601b60248201527f496e73756666696369656e74207061796d656e7420616d6f756e7400000000006044820152606401610362565b6040516001600160a01b0384169082156108fc029083906000818181858888f193505050501580156105f0573d6000803e3d6000fd5b508034111561063157336108fc6106078334610f40565b6040518115909202916000818181858888f1935050505015801561062f573d6000803e3d6000fd5b505b42600583018190556040805183815260208101929092526001600160a01b0385169133917ff441de1719057f4b4e133556ec9d815e657d6010c8a7b6633182daa6a663db7e910160405180910390a3505050565b6001600160a01b0381166000908152600260209081526040918290208054835181840281018401909452808452606093928301828280156106ef57602002820191906000526020600020905b81546001600160a01b031681526001909101906020018083116106d1575b50505050509050919050565b600060208190529081526040902080546001820180546001600160a01b03909216929161072790610db9565b80601f016020809104026020016040519081016040528092919081815260200182805461075390610db9565b80156107a05780601f10610775576101008083540402835291602001916107a0565b820191906000526020600020905b81548152906001019060200180831161078357829003601f168201915b5050505050908060020154908060030154905084565b6001600160a01b038082166000908152602081905260408120805460028201546001830180549495606095879594909116929082906107f490610db9565b80601f016020809104026020016040519081016040528092919081815260200182805461082090610db9565b801561086d5780601f106108425761010080835404028352916020019161086d565b820191906000526020600020905b81548152906001019060200180831161085057829003601f168201915b50505050509150935093509350509193909250565b336000908152602081905260409020546001600160a01b03166108e05760405162461bcd60e51b815260206004820152601660248201527510dbdb5c185b9e481b9bdd081c9959da5cdd195c995960521b6044820152606401610362565b6001600160a01b0384166109365760405162461bcd60e51b815260206004820152601860248201527f496e76616c696420656d706c6f796565206164647265737300000000000000006044820152606401610362565b3360009081526001602090815260408083206001600160a01b038816845290915290206004015460ff16156109ad5760405162461bcd60e51b815260206004820152601760248201527f456d706c6f79656520616c7265616479206578697374730000000000000000006044820152606401610362565b6040805160c0810182526001600160a01b03808716808352602080840188815284860188815260608601888152600160808801818152600060a08a01818152338083528489528c83208a845289528c83209b518c549b166001600160a01b03199b8c16178c5596518b85015594516002808c0191909155935160038b0155905160048a01805491151560ff19909216919091179055925160059098019790975582825280845287822080549788018155825283822090960180549095169093179093559181529081905291822001805491610a8783610f53565b90915550506040516001600160a01b0385169033907fd41127bc1ef851a201f5a1dfbd1e1c6476563f6d0379f2ad3c63598549ed420890600090a350505050565b6001600160a01b03808316600090815260016020818152604080842094861684529390529181206003810154600282015493820154929391929091610b0c91610f2d565b610b169190610f2d565b9150505b92915050565b634e487b7160e01b600052604160045260246000fd5b600060208284031215610b4857600080fd5b813567ffffffffffffffff80821115610b6057600080fd5b818401915084601f830112610b7457600080fd5b813581811115610b8657610b86610b20565b604051601f8201601f19908116603f01168101908382118183101715610bae57610bae610b20565b81604052828152876020848701011115610bc757600080fd5b826020860160208301376000928101602001929092525095945050505050565b80356001600160a01b0381168114610bfe57600080fd5b919050565b60008060408385031215610c1657600080fd5b610c1f83610be7565b946020939093013593505050565b600060208284031215610c3f57600080fd5b610c4882610be7565b9392505050565b6020808252825182820181905260009190848201906040850190845b81811015610c905783516001600160a01b031683529284019291840191600101610c6b565b50909695505050505050565b6000815180845260005b81811015610cc257602081850181015186830182015201610ca6565b506000602082860101526020601f19601f83011685010191505092915050565b6001600160a01b0385168152608060208201819052600090610d0690830186610c9c565b6040830194909452506060015292915050565b6001600160a01b0384168152606060208201819052600090610d3d90830185610c9c565b9050826040830152949350505050565b60008060008060808587031215610d6357600080fd5b610d6c85610be7565b966020860135965060408601359560600135945092505050565b60008060408385031215610d9957600080fd5b610da283610be7565b9150610db060208401610be7565b90509250929050565b600181811c90821680610dcd57607f821691505b602082108103610ded57634e487b7160e01b600052602260045260246000fd5b50919050565b601f821115610e3f576000816000526020600020601f850160051c81016020861015610e1c5750805b601f850160051c820191505b81811015610e3b57828155600101610e28565b5050505b505050565b815167ffffffffffffffff811115610e5e57610e5e610b20565b610e7281610e6c8454610db9565b84610df3565b602080601f831160018114610ea75760008415610e8f5750858301515b600019600386901b1c1916600185901b178555610e3b565b600085815260208120601f198616915b82811015610ed657888601518255948401946001909101908401610eb7565b5085821015610ef45787850151600019600388901b60f8161c191681555b5050505050600190811b01905550565b602081526000610c486020830184610c9c565b634e487b7160e01b600052601160045260246000fd5b80820180821115610b1a57610b1a610f17565b81810381811115610b1a57610b1a610f17565b600060018201610f6557610f65610f17565b506001019056fea2646970667358221220d3f1d6da46b4aa7f77fe699f51e8da03ebfae89d274984c46bd6f6a72cbaa42464736f6c63430008180033",
  "linkReferences": {},
  "deployedLinkReferences": {}
}