{
  "_format": "hh-sol-artifact-1",
  "contractName": "SimpleSalary",
  "sourceName": "contracts-simple/SimpleSalary.sol",
  "abi": [
    {
      "anonymous": false,
      "inputs": [
        {
          "indexed": false,
          "internalType": "address",
          "name": "employee",
          "type": "address"
        }
      ],
      "name": "EmployeeAdded",
      "type": "event"
    },
    {
      "anonymous": false,
      "inputs": [
        {
          "indexed": false,
          "internalType": "address",
          "name": "employee",
          "type": "address"
        },
        {
          "indexed": false,
          "internalType": "uint256",
          "name": "amount",
          "type": "uint256"
        }
      ],
      "name": "SalaryPaid",
      "type": "event"
    },
    {
      "anonymous": false,
      "inputs": [
        {
          "indexed": false,
          "internalType": "address",
          "name": "employee",
          "type": "address"
        },
        {
          "indexed": false,
          "internalType": "uint256",
          "name": "salary",
          "type": "uint256"
        }
      ],
      "name": "SalarySet",
      "type": "event"
    },
    {
      "inputs": [
        {
          "internalType": "address",
          "name": "employee",
          "type": "address"
        }
      ],
      "name": "addEmployee",
      "outputs": [],
      "stateMutability": "nonpayable",
      "type": "function"
    },
    {
      "inputs": [
        {
          "internalType": "address",
          "name": "",
          "type": "address"
        }
      ],
      "name": "employees",
      "outputs": [
        {
          "internalType": "bool",
          "name": "",
          "type": "bool"
        }
      ],
      "stateMutability": "view",
      "type": "function"
    },
    {
      "inputs": [
        {
          "internalType": "address",
          "name": "employee",
          "type": "address"
        }
      ],
      "name": "getSalary",
      "outputs": [
        {
          "internalType": "uint256",
          "name": "",
          "type": "uint256"
        }
      ],
      "stateMutability": "view",
      "type": "function"
    },
    {
      "inputs": [
        {
          "internalType": "address",
          "name": "employee",
          "type": "address"
        }
      ],
      "name": "paySalary",
      "outputs": [],
      "stateMutability": "payable",
      "type": "function"
    },
    {
      "inputs": [
        {
          "internalType": "address",
          "name": "employee",
          "type": "address"
        },
        {
          "internalType": "uint256",
          "name": "_salary",
          "type": "uint256"
        }
      ],
      "name": "setSalary",
      "outputs": [],
      "stateMutability": "nonpayable",
      "type": "function"
    }
  ],
  "bytecode": "0x608060405234801561001057600080fd5b5061049a806100206000396000f3fe60806040526004361061004a5760003560e01c80630ea37aef1461004f57806315b80e811461006457806384e70d9e14610084578063d0678947146100b7578063f3cb8c31146100f7575b600080fd5b61006261005d3660046103c8565b610117565b005b34801561007057600080fd5b5061006261007f3660046103ea565b610276565b34801561009057600080fd5b506100a461009f3660046103c8565b6102fd565b6040519081526020015b60405180910390f35b3480156100c357600080fd5b506100e76100d23660046103c8565b60016020526000908152604090205460ff1681565b60405190151581526020016100ae565b34801561010357600080fd5b506100626101123660046103c8565b610351565b6001600160a01b03811660009081526001602052604090205460ff166101585760405162461bcd60e51b815260040161014f90610414565b60405180910390fd5b6001600160a01b038116600090815260208190526040902054348111156101b85760405162461bcd60e51b8152602060048201526014602482015273125b9cdd59999a58da595b9d081c185e5b595b9d60621b604482015260640161014f565b6040516001600160a01b0383169082156108fc029083906000818181858888f193505050501580156101ee573d6000803e3d6000fd5b508034111561022f57336108fc610205833461043d565b6040518115909202916000818181858888f1935050505015801561022d573d6000803e3d6000fd5b505b604080516001600160a01b0384168152602081018390527fc0ebfa40c6c89654e46d7c5b0b0c1f8b5d1c65d6612894126714a7b1d6db9a3891015b60405180910390a15050565b6001600160a01b03821660009081526001602052604090205460ff166102ae5760405162461bcd60e51b815260040161014f90610414565b6001600160a01b03821660008181526020818152604091829020849055815192835282018390527fea542308e620896239671ec62c6320c33d04ee17e933cf18add1963caf951df5910161026a565b6001600160a01b03811660009081526001602052604081205460ff166103355760405162461bcd60e51b815260040161014f90610414565b506001600160a01b031660009081526020819052604090205490565b6001600160a01b038116600081815260016020818152604092839020805460ff191690921790915590519182527f041109cfe10cfa549abb66b986d0a294ecc6c9ad39000abcb9c2afd422c8bd64910160405180910390a150565b80356001600160a01b03811681146103c357600080fd5b919050565b6000602082840312156103da57600080fd5b6103e3826103ac565b9392505050565b600080604083850312156103fd57600080fd5b610406836103ac565b946020939093013593505050565b6020808252600f908201526e4e6f7420616e20656d706c6f79656560881b604082015260600190565b8181038181111561045e57634e487b7160e01b600052601160045260246000fd5b9291505056fea26469706673582212202298885bebd4a00b4b5585d3cd3849336a6ae57b754d007c51261169f689f0dc64736f6c63430008180033",
  "linkReferences": {},
  "deployedLinkReferences": {}
}